{
  "transactions": [
    {
      "hash": "0x9368e38171d1caaebc9aef0c73272ae475f551ba3ef5a553e323dbe8f5bec4ac",
      "transactionType": "CALL",
      "contractName": null,
      "contractAddress": "0x9b5b3cce1f7f8359e026f9573f258782be577f29",
      "function": "registerIdentity(address,address,uint16)",
      "arguments": [
        "0x98555970bf30BF7ed08Cf29BB08D432830b9b8bd",
        "0xEC97D2EAcf72A0bFb04E714056C6dd47Af04D6b4",
        "55"
      ],
      "transaction": {
        "from": "0xf17f52151ebef6c7334fad080c5704d77216b732",
        "to": "0x9b5b3cce1f7f8359e026f9573f258782be577f29",
        "gas": "0x13a88",
        "value": "0x0",
        "input": "0x454a03e000000000000000000000000098555970bf30bf7ed08cf29bb08d432830b9b8bd000000000000000000000000ec97d2eacf72a0bfb04e714056c6dd47af04d6b40000000000000000000000000000000000000000000000000000000000000037",
        "nonce": "0x56",
        "chainId": "0x539"
      },
      "additionalContracts": [],
      "isFixedGasLimit": false
    },
    {
      "hash": "0xbdba87525ca9d90fb7f049c6bc1c3f4a290522c274ed6952c3785539ce1782d0",
      "transactionType": "CALL",
      "contractName": null,
      "contractAddress": "0x9b5b3cce1f7f8359e026f9573f258782be577f29",
      "function": "registerIdentity(address,address,uint16)",
      "arguments": [
        "0xf4A5e19692F30dB458B566923e3252fEB35da745",
        "0xEC97D2EAcf72A0bFb04E714056C6dd47Af04D6b4",
        "55"
      ],
      "transaction": {
        "from": "0xf17f52151ebef6c7334fad080c5704d77216b732",
        "to": "0x9b5b3cce1f7f8359e026f9573f258782be577f29",
        "gas": "0x13a88",
        "value": "0x0",
        "input": "0x454a03e0000000000000000000000000f4a5e19692f30db458b566923e3252feb35da745000000000000000000000000ec97d2eacf72a0bfb04e714056c6dd47af04d6b40000000000000000000000000000000000000000000000000000000000000037",
        "nonce": "0x57",
        "chainId": "0x539"
      },
      "additionalContracts": [],
      "isFixedGasLimit": false
    }
  ],
  "receipts": [
    {
      "status": "0x1",
      "cumulativeGasUsed": "0xe3b8",
      "logs": [
        {
          "address": "0xd9bb4402537d044709bc80b666f522a6f0ce6435",
          "topics": [
            "0x0030dea7e9c9afaa2e3c9810f2fc9b5181f1bad74ca5a8db85f746a33585e747",
            "0x00000000000000000000000098555970bf30bf7ed08cf29bb08d432830b9b8bd",
            "0x000000000000000000000000ec97d2eacf72a0bfb04e714056c6dd47af04d6b4"
          ],
          "data": "0x",
          "blockHash": "0x0ed3db26e7e96d2e34331f8d8315ed3b1cad8357e7488e01156b43c4c1e4c3e8",
          "blockNumber": "0x2d3f",
          "transactionHash": "0x9368e38171d1caaebc9aef0c73272ae475f551ba3ef5a553e323dbe8f5bec4ac",
          "transactionIndex": "0x0",
          "logIndex": "0x0",
          "removed": false
        },
        {
          "address": "0x9b5b3cce1f7f8359e026f9573f258782be577f29",
          "topics": [
            "0x6ae73635c50d24a45af6fbd5e016ac4bed179addbc8bf24e04ff0fcc6d33af19",
            "0x00000000000000000000000098555970bf30bf7ed08cf29bb08d432830b9b8bd",
            "0x000000000000000000000000ec97d2eacf72a0bfb04e714056c6dd47af04d6b4"
          ],
          "data": "0x",
          "blockHash": "0x0ed3db26e7e96d2e34331f8d8315ed3b1cad8357e7488e01156b43c4c1e4c3e8",
          "blockNumber": "0x2d3f",
          "transactionHash": "0x9368e38171d1caaebc9aef0c73272ae475f551ba3ef5a553e323dbe8f5bec4ac",
          "transactionIndex": "0x0",
          "logIndex": "0x1",
          "removed": false
        }
      ],
      "logsBloom": "0x00000000000000000000000000000000000000000000000000000000000000000000000000000000000000000000000000000000000000040000000000000000100000008000000000200000000000080000000000000000000000000020000000000000008000000000000000000000000000000080000000000000000000000000000000008000000000000000000000000000002040000000000000000200000040000000000000000000000000804000000000000000000000000000000000000002000000000000000000000000000000000000000000000000000020000000080000000000000000000000000000000000000000000000000000000000",
      "type": "0x0",
      "transactionHash": "0x9368e38171d1caaebc9aef0c73272ae475f551ba3ef5a553e323dbe8f5bec4ac",
      "transactionIndex": "0x0",
      "blockHash": "0x0ed3db26e7e96d2e34331f8d8315ed3b1cad8357e7488e01156b43c4c1e4c3e8",
      "blockNumber": "0x2d3f",
      "gasUsed": "0xe3b8",
      "effectiveGasPrice": "0x3e8",
      "from": "0xf17f52151ebef6c7334fad080c5704d77216b732",
      "to": "0x9b5b3cce1f7f8359e026f9573f258782be577f29",
      "contractAddress": null
    },
    {
      "status": "0x1",
      "cumulativeGasUsed": "0x1c770",
      "logs": [
        {
          "address": "0xd9bb4402537d044709bc80b666f522a6f0ce6435",
          "topics": [
            "0x0030dea7e9c9afaa2e3c9810f2fc9b5181f1bad74ca5a8db85f746a33585e747",
            "0x000000000000000000000000f4a5e19692f30db458b566923e3252feb35da745",
            "0x000000000000000000000000ec97d2eacf72a0bfb04e714056c6dd47af04d6b4"
          ],
          "data": "0x",
          "blockHash": "0x0ed3db26e7e96d2e34331f8d8315ed3b1cad8357e7488e01156b43c4c1e4c3e8",
          "blockNumber": "0x2d3f",
          "transactionHash": "0xbdba87525ca9d90fb7f049c6bc1c3f4a290522c274ed6952c3785539ce1782d0",
          "transactionIndex": "0x1",
          "logIndex": "0x2",
          "removed": false
        },
        {
          "address": "0x9b5b3cce1f7f8359e026f9573f258782be577f29",
          "topics": [
            "0x6ae73635c50d24a45af6fbd5e016ac4bed179addbc8bf24e04ff0fcc6d33af19",
            "0x000000000000000000000000f4a5e19692f30db458b566923e3252feb35da745",
            "0x000000000000000000000000ec97d2eacf72a0bfb04e714056c6dd47af04d6b4"
          ],
          "data": "0x",
          "blockHash": "0x0ed3db26e7e96d2e34331f8d8315ed3b1cad8357e7488e01156b43c4c1e4c3e8",
          "blockNumber": "0x2d3f",
          "transactionHash": "0xbdba87525ca9d90fb7f049c6bc1c3f4a290522c274ed6952c3785539ce1782d0",
          "transactionIndex": "0x1",
          "logIndex": "0x3",
          "removed": false
        }
      ],
      "logsBloom": "0x00000000040000000000000000000000000000000000000000000000000000000000000000000000000000000000000000000000000000040000000000000000100000008000000000200000000000080000000000000000000000000020000000000000008000000000000000000000000000000000000000000000000000000000000000000000800000000000000000000000002040000000000000000200000040000000000000000000000000804000001000000000000000000000000000000000000000000000000000000000000000000000000000000000000020000000080000000000000000000000000000000000000000000000000000000000",
      "type": "0x0",
      "transactionHash": "0xbdba87525ca9d90fb7f049c6bc1c3f4a290522c274ed6952c3785539ce1782d0",
      "transactionIndex": "0x1",
      "blockHash": "0x0ed3db26e7e96d2e34331f8d8315ed3b1cad8357e7488e01156b43c4c1e4c3e8",
      "blockNumber": "0x2d3f",
      "gasUsed": "0xe3b8",
      "effectiveGasPrice": "0x3e8",
      "from": "0xf17f52151ebef6c7334fad080c5704d77216b732",
      "to": "0x9b5b3cce1f7f8359e026f9573f258782be577f29",
      "contractAddress": null
    }
  ],
  "libraries": [],
  "pending": [],
  "returns": {},
  "timestamp": 1741849410,
  "chain": 1337,
  "commit": "4e15eab"
}