{
  "transactions": [
    {
      "hash": "0x72de0e8381f0d761a00a8094abfc62f3bdb03e20da8a2d6b3982eaccfedfec16",
      "transactionType": "CALL",
      "contractName": null,
      "contractAddress": "0x6ec5189503e0f03704b737d1977230c5b800a7f5",
      "function": "registerIdentity(address,address,uint16)",
      "arguments": [
        "0x98555970bf30BF7ed08Cf29BB08D432830b9b8bd",
        "0x66D5dD63fC9655a36B0bAe3BA619B7Cc2eCd6507",
        "1"
      ],
      "transaction": {
        "from": "0xf17f52151ebef6c7334fad080c5704d77216b732",
        "to": "0x6ec5189503e0f03704b737d1977230c5b800a7f5",
        "gas": "0x13a88",
        "value": "0x0",
        "input": "0x454a03e000000000000000000000000098555970bf30bf7ed08cf29bb08d432830b9b8bd00000000000000000000000066d5dd63fc9655a36b0bae3ba619b7cc2ecd65070000000000000000000000000000000000000000000000000000000000000001",
        "nonce": "0x33",
        "chainId": "0x539"
      },
      "additionalContracts": [],
      "isFixedGasLimit": false
    },
    {
      "hash": "0x3d5fe634509d9145a0bd3910a4ee4eb1d3d82489c298f44ab2065940991bdae3",
      "transactionType": "CALL",
      "contractName": null,
      "contractAddress": "0x6ec5189503e0f03704b737d1977230c5b800a7f5",
      "function": "registerIdentity(address,address,uint16)",
      "arguments": [
        "0xf4A5e19692F30dB458B566923e3252fEB35da745",
        "0x66D5dD63fC9655a36B0bAe3BA619B7Cc2eCd6507",
        "1"
      ],
      "transaction": {
        "from": "0xf17f52151ebef6c7334fad080c5704d77216b732",
        "to": "0x6ec5189503e0f03704b737d1977230c5b800a7f5",
        "gas": "0x13a88",
        "value": "0x0",
        "input": "0x454a03e0000000000000000000000000f4a5e19692f30db458b566923e3252feb35da74500000000000000000000000066d5dd63fc9655a36b0bae3ba619b7cc2ecd65070000000000000000000000000000000000000000000000000000000000000001",
        "nonce": "0x34",
        "chainId": "0x539"
      },
      "additionalContracts": [],
      "isFixedGasLimit": false
    }
  ],
  "receipts": [
    {
      "status": "0x1",
      "cumulativeGasUsed": "0xe3b8",
      "logs": [
        {
          "address": "0xf935973e9f884c66e6e3ce681344064e565e0250",
          "topics": [
            "0x0030dea7e9c9afaa2e3c9810f2fc9b5181f1bad74ca5a8db85f746a33585e747",
            "0x00000000000000000000000098555970bf30bf7ed08cf29bb08d432830b9b8bd",
            "0x00000000000000000000000066d5dd63fc9655a36b0bae3ba619b7cc2ecd6507"
          ],
          "data": "0x",
          "blockHash": "0x4c37441d19a80bb4c231cfa7691c8812be741b2b7f26f294094f87d04186a961",
          "blockNumber": "0x841",
          "transactionHash": "0x72de0e8381f0d761a00a8094abfc62f3bdb03e20da8a2d6b3982eaccfedfec16",
          "transactionIndex": "0x0",
          "logIndex": "0x0",
          "removed": false
        },
        {
          "address": "0x6ec5189503e0f03704b737d1977230c5b800a7f5",
          "topics": [
            "0x6ae73635c50d24a45af6fbd5e016ac4bed179addbc8bf24e04ff0fcc6d33af19",
            "0x00000000000000000000000098555970bf30bf7ed08cf29bb08d432830b9b8bd",
            "0x00000000000000000000000066d5dd63fc9655a36b0bae3ba619b7cc2ecd6507"
          ],
          "data": "0x",
          "blockHash": "0x4c37441d19a80bb4c231cfa7691c8812be741b2b7f26f294094f87d04186a961",
          "blockNumber": "0x841",
          "transactionHash": "0x72de0e8381f0d761a00a8094abfc62f3bdb03e20da8a2d6b3982eaccfedfec16",
          "transactionIndex": "0x0",
          "logIndex": "0x1",
          "removed": false
        }
      ],
      "logsBloom": "0x00000000040000000000000000000000000000000000000000000000000000000000000000000000000000000000000000000000002000040000000000000000000000008000000100200000000000080000000000100000000000000000000000000000000000000000000000000000800000000080000000000000000000000000000000008010000000000100000000000000000000000000000000000000000040000000000000080000000000004000008000000000000000000000000000000002000000000000000000000000000000000000000000000000000000000000000000000000000000000000000000000000000000000000000000000000",
      "type": "0x0",
      "transactionHash": "0x72de0e8381f0d761a00a8094abfc62f3bdb03e20da8a2d6b3982eaccfedfec16",
      "transactionIndex": "0x0",
      "blockHash": "0x4c37441d19a80bb4c231cfa7691c8812be741b2b7f26f294094f87d04186a961",
      "blockNumber": "0x841",
      "gasUsed": "0xe3b8",
      "effectiveGasPrice": "0x3e8",
      "from": "0xf17f52151ebef6c7334fad080c5704d77216b732",
      "to": "0x6ec5189503e0f03704b737d1977230c5b800a7f5",
      "contractAddress": null
    },
    {
      "status": "0x1",
      "cumulativeGasUsed": "0x1c770",
      "logs": [
        {
          "address": "0xf935973e9f884c66e6e3ce681344064e565e0250",
          "topics": [
            "0x0030dea7e9c9afaa2e3c9810f2fc9b5181f1bad74ca5a8db85f746a33585e747",
            "0x000000000000000000000000f4a5e19692f30db458b566923e3252feb35da745",
            "0x00000000000000000000000066d5dd63fc9655a36b0bae3ba619b7cc2ecd6507"
          ],
          "data": "0x",
          "blockHash": "0x4c37441d19a80bb4c231cfa7691c8812be741b2b7f26f294094f87d04186a961",
          "blockNumber": "0x841",
          "transactionHash": "0x3d5fe634509d9145a0bd3910a4ee4eb1d3d82489c298f44ab2065940991bdae3",
          "transactionIndex": "0x1",
          "logIndex": "0x2",
          "removed": false
        },
        {
          "address": "0x6ec5189503e0f03704b737d1977230c5b800a7f5",
          "topics": [
            "0x6ae73635c50d24a45af6fbd5e016ac4bed179addbc8bf24e04ff0fcc6d33af19",
            "0x000000000000000000000000f4a5e19692f30db458b566923e3252feb35da745",
            "0x00000000000000000000000066d5dd63fc9655a36b0bae3ba619b7cc2ecd6507"
          ],
          "data": "0x",
          "blockHash": "0x4c37441d19a80bb4c231cfa7691c8812be741b2b7f26f294094f87d04186a961",
          "blockNumber": "0x841",
          "transactionHash": "0x3d5fe634509d9145a0bd3910a4ee4eb1d3d82489c298f44ab2065940991bdae3",
          "transactionIndex": "0x1",
          "logIndex": "0x3",
          "removed": false
        }
      ],
      "logsBloom": "0x00000000040000000000000000000000000000000000000000000000000000000000000000000000000000000000000000000000002000040000000000000000000000008000000100200000000000080000000000100000000000000000000000000000000000000000000000000000800000000000000000000000000000000000000000000010800000000100000000000000000000000000000000000000000040000000000000080000000000004000009000000000000000000000000000000000000000000000000000000000000000000000000000000000000000000000000000000000000000000000000000000000000000000000000000000000",
      "type": "0x0",
      "transactionHash": "0x3d5fe634509d9145a0bd3910a4ee4eb1d3d82489c298f44ab2065940991bdae3",
      "transactionIndex": "0x1",
      "blockHash": "0x4c37441d19a80bb4c231cfa7691c8812be741b2b7f26f294094f87d04186a961",
      "blockNumber": "0x841",
      "gasUsed": "0xe3b8",
      "effectiveGasPrice": "0x3e8",
      "from": "0xf17f52151ebef6c7334fad080c5704d77216b732",
      "to": "0x6ec5189503e0f03704b737d1977230c5b800a7f5",
      "contractAddress": null
    }
  ],
  "libraries": [],
  "pending": [],
  "returns": {},
  "timestamp": 1741830237,
  "chain": 1337,
  "commit": "8f4f883"
}