{
  "transactions": [
    {
      "hash": "0xb740efce17a8e1cb7decd2f64f54ce86f9d81cd9d554882262ba6fc29b64cd99",
      "transactionType": "CALL",
      "contractName": null,
      "contractAddress": "0xd9bb4402537d044709bc80b666f522a6f0ce6435",
      "function": "addAgent(address)",
      "arguments": [
        "0x293D0b9eF2990BC8093E346eeC39e3fc552A3b09"
      ],
      "transaction": {
        "from": "0xf17f52151ebef6c7334fad080c5704d77216b732",
        "to": "0xd9bb4402537d044709bc80b666f522a6f0ce6435",
        "gas": "0x10f94",
        "value": "0x0",
        "input": "0x84e79842000000000000000000000000293d0b9ef2990bc8093e346eec39e3fc552a3b09",
        "nonce": "0x50",
        "chainId": "0x539"
      },
      "additionalContracts": [],
      "isFixedGasLimit": false
    },
    {
      "hash": "0xb73e731b92d3ba28f54e4930f7453a6b5e47326ff23087d9e12336ed5f3de4b6",
      "transactionType": "CALL",
      "contractName": null,
      "contractAddress": "0x9b5b3cce1f7f8359e026f9573f258782be577f29",
      "function": "addAgent(address)",
      "arguments": [
        "0x293D0b9eF2990BC8093E346eeC39e3fc552A3b09"
      ],
      "transaction": {
        "from": "0xf17f52151ebef6c7334fad080c5704d77216b732",
        "to": "0x9b5b3cce1f7f8359e026f9573f258782be577f29",
        "gas": "0x1105c",
        "value": "0x0",
        "input": "0x84e79842000000000000000000000000293d0b9ef2990bc8093e346eec39e3fc552a3b09",
        "nonce": "0x51",
        "chainId": "0x539"
      },
      "additionalContracts": [],
      "isFixedGasLimit": false
    },
    {
      "hash": "0x8fc42471ad3f42259f2cf6891a3b8f305fc4abbd0326a7023e7ec9a5b4ee6db8",
      "transactionType": "CALL",
      "contractName": null,
      "contractAddress": "0x2078faf714fb3727a66bc10f7a9690b5a16cd0bb",
      "function": "addAgent(address)",
      "arguments": [
        "0x293D0b9eF2990BC8093E346eeC39e3fc552A3b09"
      ],
      "transaction": {
        "from": "0xf17f52151ebef6c7334fad080c5704d77216b732",
        "to": "0x2078faf714fb3727a66bc10f7a9690b5a16cd0bb",
        "gas": "0x1120b",
        "value": "0x0",
        "input": "0x84e79842000000000000000000000000293d0b9ef2990bc8093e346eec39e3fc552a3b09",
        "nonce": "0x52",
        "chainId": "0x539"
      },
      "additionalContracts": [],
      "isFixedGasLimit": false
    }
  ],
  "receipts": [
    {
      "status": "0x1",
      "cumulativeGasUsed": "0xb9b2",
      "logs": [
        {
          "address": "0xd9bb4402537d044709bc80b666f522a6f0ce6435",
          "topics": [
            "0xf68e73cec97f2d70aa641fb26e87a4383686e2efacb648f2165aeb02ac562ec5",
            "0x000000000000000000000000293d0b9ef2990bc8093e346eec39e3fc552a3b09"
          ],
          "data": "0x",
          "blockHash": "0xe9fdc917542525c189f3982441a30ce74323f3d9d139a3ad8e52de1620ef1ace",
          "blockNumber": "0x2a5e",
          "transactionHash": "0xb740efce17a8e1cb7decd2f64f54ce86f9d81cd9d554882262ba6fc29b64cd99",
          "transactionIndex": "0x0",
          "logIndex": "0x0",
          "removed": false
        }
      ],
      "logsBloom": "0x04800000000000000000000000000000000000000000000000000000000000000000000000000000000000000000000000000000000000000000000000000000000000000000000002000000000000000000000000000000000000000000000000000000008000000000000000000000000000000000000000000000000000000000000000000000000000000000008000000000000000000000000000000000000000000000000000000000000000800000000000000000000000000000000000000000000000000000000000000000000000000000000000000000000020000000000000000000000000004000000000040000000000000000000000000000",
      "type": "0x0",
      "transactionHash": "0xb740efce17a8e1cb7decd2f64f54ce86f9d81cd9d554882262ba6fc29b64cd99",
      "transactionIndex": "0x0",
      "blockHash": "0xe9fdc917542525c189f3982441a30ce74323f3d9d139a3ad8e52de1620ef1ace",
      "blockNumber": "0x2a5e",
      "gasUsed": "0xb9b2",
      "effectiveGasPrice": "0x3e8",
      "from": "0xf17f52151ebef6c7334fad080c5704d77216b732",
      "to": "0xd9bb4402537d044709bc80b666f522a6f0ce6435",
      "contractAddress": null
    },
    {
      "status": "0x1",
      "cumulativeGasUsed": "0x173ed",
      "logs": [
        {
          "address": "0x9b5b3cce1f7f8359e026f9573f258782be577f29",
          "topics": [
            "0xf68e73cec97f2d70aa641fb26e87a4383686e2efacb648f2165aeb02ac562ec5",
            "0x000000000000000000000000293d0b9ef2990bc8093e346eec39e3fc552a3b09"
          ],
          "data": "0x",
          "blockHash": "0xe9fdc917542525c189f3982441a30ce74323f3d9d139a3ad8e52de1620ef1ace",
          "blockNumber": "0x2a5e",
          "transactionHash": "0xb73e731b92d3ba28f54e4930f7453a6b5e47326ff23087d9e12336ed5f3de4b6",
          "transactionIndex": "0x1",
          "logIndex": "0x1",
          "removed": false
        }
      ],
      "logsBloom": "0x04800000000000000000000000000000000000000000000000000000000000000000000000000000000000000000000000000000000000000000000000000000000000000000000002000000000000000000000000000000000000000020000000000000000000000000000000000000000000000000000000000000000000000000000000000000000000000000008000000000000000000000000000000200000000000000000000000000000000000000000000000000000000000000000000000000000000000000000000000000000000000000000000000000000000000000080000000000000000004000000000040000000000000000000000000000",
      "type": "0x0",
      "transactionHash": "0xb73e731b92d3ba28f54e4930f7453a6b5e47326ff23087d9e12336ed5f3de4b6",
      "transactionIndex": "0x1",
      "blockHash": "0xe9fdc917542525c189f3982441a30ce74323f3d9d139a3ad8e52de1620ef1ace",
      "blockNumber": "0x2a5e",
      "gasUsed": "0xba3b",
      "effectiveGasPrice": "0x3e8",
      "from": "0xf17f52151ebef6c7334fad080c5704d77216b732",
      "to": "0x9b5b3cce1f7f8359e026f9573f258782be577f29",
      "contractAddress": null
    },
    {
      "status": "0x1",
      "cumulativeGasUsed": "0xbb62",
      "logs": [
        {
          "address": "0x2078faf714fb3727a66bc10f7a9690b5a16cd0bb",
          "topics": [
            "0xf68e73cec97f2d70aa641fb26e87a4383686e2efacb648f2165aeb02ac562ec5",
            "0x000000000000000000000000293d0b9ef2990bc8093e346eec39e3fc552a3b09"
          ],
          "data": "0x",
          "blockHash": "0x4bb1d0431b57b5162847710ac27f18147f1f088749c2a38fdbbc937ead71b823",
          "blockNumber": "0x2a5f",
          "transactionHash": "0x8fc42471ad3f42259f2cf6891a3b8f305fc4abbd0326a7023e7ec9a5b4ee6db8",
          "transactionIndex": "0x0",
          "logIndex": "0x0",
          "removed": false
        }
      ],
      "logsBloom": "0x04800000000000000000000000000000000000000000000000000000000000000040000000000000000000000000000000000000000000000000000000000000000000000000000002000000000000000000000000000000000000000000000000000000000000000000000000000000000000000000000000000000000000000000000000000000000000000000008000000000000000000000000000000000000000000000000000000000000000000000000000000000000000000000000000000001000000000000000000000000000000000000000000000000000000000000000000000000000000004000000000040000000000000080000000000000",
      "type": "0x0",
      "transactionHash": "0x8fc42471ad3f42259f2cf6891a3b8f305fc4abbd0326a7023e7ec9a5b4ee6db8",
      "transactionIndex": "0x0",
      "blockHash": "0x4bb1d0431b57b5162847710ac27f18147f1f088749c2a38fdbbc937ead71b823",
      "blockNumber": "0x2a5f",
      "gasUsed": "0xbb62",
      "effectiveGasPrice": "0x3e8",
      "from": "0xf17f52151ebef6c7334fad080c5704d77216b732",
      "to": "0x2078faf714fb3727a66bc10f7a9690b5a16cd0bb",
      "contractAddress": null
    }
  ],
  "libraries": [],
  "pending": [],
  "returns": {},
  "timestamp": 1741847922,
  "chain": 1337,
  "commit": "4e15eab"
}