{
  "transactions": [
    {
      "hash": "0xb224a2d5cfa363164948030c720111992f5c509ac78541d2313a38498377fdef",
      "transactionType": "CALL",
      "contractName": null,
      "contractAddress": "0xd9bb4402537d044709bc80b666f522a6f0ce6435",
      "function": "addAgent(address)",
      "arguments": [
        "0xf17f52151EbEF6C7334FAD080c5704D77216b732"
      ],
      "transaction": {
        "from": "0xf17f52151ebef6c7334fad080c5704d77216b732",
        "to": "0xd9bb4402537d044709bc80b666f522a6f0ce6435",
        "gas": "0x10f94",
        "value": "0x0",
        "input": "0x84e79842000000000000000000000000f17f52151ebef6c7334fad080c5704d77216b732",
        "nonce": "0x4c",
        "chainId": "0x539"
      },
      "additionalContracts": [],
      "isFixedGasLimit": false
    },
    {
      "hash": "0xc3b0e5c7c18af9f863cfaaf627d32fae1ea81c3de4830a5fc61d56171d8c19c1",
      "transactionType": "CALL",
      "contractName": null,
      "contractAddress": "0xd9bb4402537d044709bc80b666f522a6f0ce6435",
      "function": "addAgent(address)",
      "arguments": [
        "0x9b5b3cCe1f7f8359E026f9573f258782Be577f29"
      ],
      "transaction": {
        "from": "0xf17f52151ebef6c7334fad080c5704d77216b732",
        "to": "0xd9bb4402537d044709bc80b666f522a6f0ce6435",
        "gas": "0x10f94",
        "value": "0x0",
        "input": "0x84e798420000000000000000000000009b5b3cce1f7f8359e026f9573f258782be577f29",
        "nonce": "0x4d",
        "chainId": "0x539"
      },
      "additionalContracts": [],
      "isFixedGasLimit": false
    },
    {
      "hash": "0xbb9030f1366d9ebeba549818615bf359a407d339f95067fc342fb8ef124d2706",
      "transactionType": "CALL",
      "contractName": null,
      "contractAddress": "0x9b5b3cce1f7f8359e026f9573f258782be577f29",
      "function": "addAgent(address)",
      "arguments": [
        "0xf17f52151EbEF6C7334FAD080c5704D77216b732"
      ],
      "transaction": {
        "from": "0xf17f52151ebef6c7334fad080c5704d77216b732",
        "to": "0x9b5b3cce1f7f8359e026f9573f258782be577f29",
        "gas": "0x1105c",
        "value": "0x0",
        "input": "0x84e79842000000000000000000000000f17f52151ebef6c7334fad080c5704d77216b732",
        "nonce": "0x4e",
        "chainId": "0x539"
      },
      "additionalContracts": [],
      "isFixedGasLimit": false
    },
    {
      "hash": "0xf233dcabd5684006a8755cd9bfcbc3e915bd9e0b2aacc2b43b7047101f491454",
      "transactionType": "CALL",
      "contractName": null,
      "contractAddress": "0x2078faf714fb3727a66bc10f7a9690b5a16cd0bb",
      "function": "addAgent(address)",
      "arguments": [
        "0xf17f52151EbEF6C7334FAD080c5704D77216b732"
      ],
      "transaction": {
        "from": "0xf17f52151ebef6c7334fad080c5704d77216b732",
        "to": "0x2078faf714fb3727a66bc10f7a9690b5a16cd0bb",
        "gas": "0x1120b",
        "value": "0x0",
        "input": "0x84e79842000000000000000000000000f17f52151ebef6c7334fad080c5704d77216b732",
        "nonce": "0x4f",
        "chainId": "0x539"
      },
      "additionalContracts": [],
      "isFixedGasLimit": false
    }
  ],
  "receipts": [
    {
      "status": "0x1",
      "cumulativeGasUsed": "0xb9b2",
      "logs": [
        {
          "address": "0xd9bb4402537d044709bc80b666f522a6f0ce6435",
          "topics": [
            "0xf68e73cec97f2d70aa641fb26e87a4383686e2efacb648f2165aeb02ac562ec5",
            "0x000000000000000000000000f17f52151ebef6c7334fad080c5704d77216b732"
          ],
          "data": "0x",
          "blockHash": "0x4c86c9f3528ac164044e778cd1c3920f508ad65dab46f0d56fe2df67b4198889",
          "blockNumber": "0x24c6",
          "transactionHash": "0xb224a2d5cfa363164948030c720111992f5c509ac78541d2313a38498377fdef",
          "transactionIndex": "0x0",
          "logIndex": "0x0",
          "removed": false
        }
      ],
      "logsBloom": "0x00800000000000000000000000000000000000000000000000000000000000000000000000000020000000000000000000000000000000000000000000000000000000000000000000000000000000000000000000000000000080000000000000000000008000000000000000000000000000000000000000000000000000000000000000010000000000000000008000000000000000000000000000000000000000000000000000000000000000800000000000000000000000000000000000000000000000000000000000000000000000000000000000000000000020000000000000000000000000004000000000000000000000000000000000000000",
      "type": "0x0",
      "transactionHash": "0xb224a2d5cfa363164948030c720111992f5c509ac78541d2313a38498377fdef",
      "transactionIndex": "0x0",
      "blockHash": "0x4c86c9f3528ac164044e778cd1c3920f508ad65dab46f0d56fe2df67b4198889",
      "blockNumber": "0x24c6",
      "gasUsed": "0xb9b2",
      "effectiveGasPrice": "0x3e8",
      "from": "0xf17f52151ebef6c7334fad080c5704d77216b732",
      "to": "0xd9bb4402537d044709bc80b666f522a6f0ce6435",
      "contractAddress": null
    },
    {
      "status": "0x1",
      "cumulativeGasUsed": "0x17364",
      "logs": [
        {
          "address": "0xd9bb4402537d044709bc80b666f522a6f0ce6435",
          "topics": [
            "0xf68e73cec97f2d70aa641fb26e87a4383686e2efacb648f2165aeb02ac562ec5",
            "0x0000000000000000000000009b5b3cce1f7f8359e026f9573f258782be577f29"
          ],
          "data": "0x",
          "blockHash": "0x4c86c9f3528ac164044e778cd1c3920f508ad65dab46f0d56fe2df67b4198889",
          "blockNumber": "0x24c6",
          "transactionHash": "0xc3b0e5c7c18af9f863cfaaf627d32fae1ea81c3de4830a5fc61d56171d8c19c1",
          "transactionIndex": "0x1",
          "logIndex": "0x1",
          "removed": false
        }
      ],
      "logsBloom": "0x00800000000000000000000000000000000000000000000000000000000000000000000000000000000000000000000000000000000000000000000000000000000000000000000000000000000000000000000000000000000000000000000000100000008000000000000000000000000000000000000000000000000000000000000000000000000000000000008000000000000000000000000000000000000000000000000000200000000000800000000000000000000000000000000000000000000000000000000000000000000000000000000000000000000020000000000000000000000000004000000000000800000000000000000000000000",
      "type": "0x0",
      "transactionHash": "0xc3b0e5c7c18af9f863cfaaf627d32fae1ea81c3de4830a5fc61d56171d8c19c1",
      "transactionIndex": "0x1",
      "blockHash": "0x4c86c9f3528ac164044e778cd1c3920f508ad65dab46f0d56fe2df67b4198889",
      "blockNumber": "0x24c6",
      "gasUsed": "0xb9b2",
      "effectiveGasPrice": "0x3e8",
      "from": "0xf17f52151ebef6c7334fad080c5704d77216b732",
      "to": "0xd9bb4402537d044709bc80b666f522a6f0ce6435",
      "contractAddress": null
    },
    {
      "status": "0x1",
      "cumulativeGasUsed": "0x22d9f",
      "logs": [
        {
          "address": "0x9b5b3cce1f7f8359e026f9573f258782be577f29",
          "topics": [
            "0xf68e73cec97f2d70aa641fb26e87a4383686e2efacb648f2165aeb02ac562ec5",
            "0x000000000000000000000000f17f52151ebef6c7334fad080c5704d77216b732"
          ],
          "data": "0x",
          "blockHash": "0x4c86c9f3528ac164044e778cd1c3920f508ad65dab46f0d56fe2df67b4198889",
          "blockNumber": "0x24c6",
          "transactionHash": "0xbb9030f1366d9ebeba549818615bf359a407d339f95067fc342fb8ef124d2706",
          "transactionIndex": "0x2",
          "logIndex": "0x2",
          "removed": false
        }
      ],
      "logsBloom": "0x00800000000000000000000000000000000000000000000000000000000000000000000000000020000000000000000000000000000000000000000000000000000000000000000000000000000000000000000000000000000080000020000000000000000000000000000000000000000000000000000000000000000000000000000000010000000000000000008000000000000000000000000000000200000000000000000000000000000000000000000000000000000000000000000000000000000000000000000000000000000000000000000000000000000000000000080000000000000000004000000000000000000000000000000000000000",
      "type": "0x0",
      "transactionHash": "0xbb9030f1366d9ebeba549818615bf359a407d339f95067fc342fb8ef124d2706",
      "transactionIndex": "0x2",
      "blockHash": "0x4c86c9f3528ac164044e778cd1c3920f508ad65dab46f0d56fe2df67b4198889",
      "blockNumber": "0x24c6",
      "gasUsed": "0xba3b",
      "effectiveGasPrice": "0x3e8",
      "from": "0xf17f52151ebef6c7334fad080c5704d77216b732",
      "to": "0x9b5b3cce1f7f8359e026f9573f258782be577f29",
      "contractAddress": null
    },
    {
      "status": "0x1",
      "cumulativeGasUsed": "0x2e901",
      "logs": [
        {
          "address": "0x2078faf714fb3727a66bc10f7a9690b5a16cd0bb",
          "topics": [
            "0xf68e73cec97f2d70aa641fb26e87a4383686e2efacb648f2165aeb02ac562ec5",
            "0x000000000000000000000000f17f52151ebef6c7334fad080c5704d77216b732"
          ],
          "data": "0x",
          "blockHash": "0x4c86c9f3528ac164044e778cd1c3920f508ad65dab46f0d56fe2df67b4198889",
          "blockNumber": "0x24c6",
          "transactionHash": "0xf233dcabd5684006a8755cd9bfcbc3e915bd9e0b2aacc2b43b7047101f491454",
          "transactionIndex": "0x3",
          "logIndex": "0x3",
          "removed": false
        }
      ],
      "logsBloom": "0x00800000000000000000000000000000000000000000000000000000000000000040000000000020000000000000000000000000000000000000000000000000000000000000000000000000000000000000000000000000000080000000000000000000000000000000000000000000000000000000000000000000000000000000000000010000000000000000008000000000000000000000000000000000000000000000000000000000000000000000000000000000000000000000000000000001000000000000000000000000000000000000000000000000000000000000000000000000000000004000000000000000000000000080000000000000",
      "type": "0x0",
      "transactionHash": "0xf233dcabd5684006a8755cd9bfcbc3e915bd9e0b2aacc2b43b7047101f491454",
      "transactionIndex": "0x3",
      "blockHash": "0x4c86c9f3528ac164044e778cd1c3920f508ad65dab46f0d56fe2df67b4198889",
      "blockNumber": "0x24c6",
      "gasUsed": "0xbb62",
      "effectiveGasPrice": "0x3e8",
      "from": "0xf17f52151ebef6c7334fad080c5704d77216b732",
      "to": "0x2078faf714fb3727a66bc10f7a9690b5a16cd0bb",
      "contractAddress": null
    }
  ],
  "libraries": [],
  "pending": [],
  "returns": {},
  "timestamp": 1741845055,
  "chain": 1337,
  "commit": "4e15eab"
}