{
  "transactions": [
    {
      "hash": "0x676645bd6ad9314cab80f7ae44bcab6159113dd9bce900967102b0fd374b1fc0",
      "transactionType": "CALL",
      "contractName": null,
      "contractAddress": "0x486b9f3fb089f9166147149562e0a6952442fa42",
      "function": "approveBuyer(address,bool,bool,bool,uint256,string,bool,bool)",
      "arguments": [
        "0x98555970bf30BF7ed08Cf29BB08D432830b9b8bd",
        "true",
        "true",
        "true",
        "10000000000000000000000",
        "Rua dos Bobos, 0",
        "true",
        "true"
      ],
      "transaction": {
        "from": "0xf17f52151ebef6c7334fad080c5704d77216b732",
        "to": "0x486b9f3fb089f9166147149562e0a6952442fa42",
        "gas": "0x2832b",
        "value": "0x0",
        "input": "0x5cdeccf800000000000000000000000098555970bf30bf7ed08cf29bb08d432830b9b8bd00000000000000000000000000000000000000000000000000000000000000010000000000000000000000000000000000000000000000000000000000000001000000000000000000000000000000000000000000000000000000000000000100000000000000000000000000000000000000000000021e19e0c9bab2400000000000000000000000000000000000000000000000000000000000000000010000000000000000000000000000000000000000000000000000000000000000010000000000000000000000000000000000000000000000000000000000000001000000000000000000000000000000000000000000000000000000000000001052756120646f7320426f626f732c203000000000000000000000000000000000",
        "nonce": "0x3a",
        "chainId": "0x539"
      },
      "additionalContracts": [],
      "isFixedGasLimit": false
    }
  ],
  "receipts": [
    {
      "status": "0x1",
      "cumulativeGasUsed": "0x1d1a5",
      "logs": [
        {
          "address": "0x486b9f3fb089f9166147149562e0a6952442fa42",
          "topics": [
            "0x72bd472c4d4dc7af2e7c012d0325cf266dfe9edfe2f2685807bbb26f8c9fe652",
            "0x00000000000000000000000098555970bf30bf7ed08cf29bb08d432830b9b8bd"
          ],
          "data": "0x",
          "blockHash": "0x80d58772536197bcdb50af2702ea5d8d0976ac981de962f8125059d919af7233",
          "blockNumber": "0x21a5",
          "transactionHash": "0x676645bd6ad9314cab80f7ae44bcab6159113dd9bce900967102b0fd374b1fc0",
          "transactionIndex": "0x0",
          "logIndex": "0x0",
          "removed": false
        }
      ],
      "logsBloom": "0x00000000000000000000000000000000000000000000000000000000002800000000000000000000000000000000000000000000000000000000000000000000000000000000000000000000000000000000000000000000000080000000000000000000000000000000000000000000000000000080000000000000000000000000001000008000000000000000000000000000000000000000020000000000000000000000000000000000000000000000000000000000000000000000000000000002000000000000000000000000000000000000000000000000000000000000000000000000000000000000000000000000000000000000200000000000",
      "type": "0x0",
      "transactionHash": "0x676645bd6ad9314cab80f7ae44bcab6159113dd9bce900967102b0fd374b1fc0",
      "transactionIndex": "0x0",
      "blockHash": "0x80d58772536197bcdb50af2702ea5d8d0976ac981de962f8125059d919af7233",
      "blockNumber": "0x21a5",
      "gasUsed": "0x1d1a5",
      "effectiveGasPrice": "0x3e8",
      "from": "0xf17f52151ebef6c7334fad080c5704d77216b732",
      "to": "0x486b9f3fb089f9166147149562e0a6952442fa42",
      "contractAddress": null
    }
  ],
  "libraries": [],
  "pending": [],
  "returns": {},
  "timestamp": 1741843454,
  "chain": 1337,
  "commit": "4e15eab"
}