{
  "transactions": [
    {
      "hash": "0x0844666544835f52af43e84352dd48df1a2d300c4b8f4e6a93c7968bcc79e5bf",
      "transactionType": "CALL",
      "contractName": null,
      "contractAddress": "0xf235bb30ad375f279248aafc89f4a92899a900de",
      "function": "approveBuyer(address,bool,bool,bool,uint256,string,bool,bool)",
      "arguments": [
        "0xf4A5e19692F30dB458B566923e3252fEB35da745",
        "true",
        "true",
        "true",
        "10000000000000000000000",
        "Rua dos Bobos, 0",
        "true",
        "true"
      ],
      "transaction": {
        "from": "0xf17f52151ebef6c7334fad080c5704d77216b732",
        "to": "0xf235bb30ad375f279248aafc89f4a92899a900de",
        "gas": "0x28fcf",
        "value": "0x0",
        "input": "0x5cdeccf8000000000000000000000000f4a5e19692f30db458b566923e3252feb35da74500000000000000000000000000000000000000000000000000000000000000010000000000000000000000000000000000000000000000000000000000000001000000000000000000000000000000000000000000000000000000000000000100000000000000000000000000000000000000000000021e19e0c9bab2400000000000000000000000000000000000000000000000000000000000000000010000000000000000000000000000000000000000000000000000000000000000010000000000000000000000000000000000000000000000000000000000000001000000000000000000000000000000000000000000000000000000000000001052756120646f7320426f626f732c203000000000000000000000000000000000",
        "nonce": "0x59",
        "chainId": "0x539"
      },
      "additionalContracts": [],
      "isFixedGasLimit": false
    }
  ],
  "receipts": [
    {
      "status": "0x1",
      "cumulativeGasUsed": "0x1dacc",
      "logs": [
        {
          "address": "0xf235bb30ad375f279248aafc89f4a92899a900de",
          "topics": [
            "0x5d619b2d34bb4b42202a1b22720ed0ce4c21d01d1b6bd98234ad6d138df7c0c6",
            "0x000000000000000000000000f4a5e19692f30db458b566923e3252feb35da745",
            "0x30cdaef97b0a978e13faead516df0ab2aa8365e6899e0231b8d04f25900e23f1",
            "0x0000000000000000000000000000000000000000000000000000000000000001"
          ],
          "data": "0x00000000000000000000000000000000000000000000000000000000000000010000000000000000000000000000000000000000000000000000000000000001000000000000000000000000000000000000000000000000000000000000000100000000000000000000000000000000000000000000021e19e0c9bab24000000000000000000000000000000000000000000000000000000000000000000001",
          "blockHash": "0xc63703295dd929e7ce45186ab9dd3fa854902fdf8a4be0b40dd1a3c6a6944c3d",
          "blockNumber": "0x2e0f",
          "transactionHash": "0x0844666544835f52af43e84352dd48df1a2d300c4b8f4e6a93c7968bcc79e5bf",
          "transactionIndex": "0x0",
          "logIndex": "0x0",
          "removed": false
        }
      ],
      "logsBloom": "0x00000000040000000000040040000000000000000000000000400000000000000010000000000000100000004000000000000000000000000000000000040000000000000000400000000000000000000000000000040000000000000000000000000040000000000000000000000000000000000000000000000000000000000000000000000000800000000000000100000000000000000000000000000000000000000000000000000000000000000000001000000000000000000000000000000000000000000000000000000000000000000000000000000000000040000000000000000000000000000000000000000000000000000000000000000000",
      "type": "0x0",
      "transactionHash": "0x0844666544835f52af43e84352dd48df1a2d300c4b8f4e6a93c7968bcc79e5bf",
      "transactionIndex": "0x0",
      "blockHash": "0xc63703295dd929e7ce45186ab9dd3fa854902fdf8a4be0b40dd1a3c6a6944c3d",
      "blockNumber": "0x2e0f",
      "gasUsed": "0x1dacc",
      "effectiveGasPrice": "0x3e8",
      "from": "0xf17f52151ebef6c7334fad080c5704d77216b732",
      "to": "0xf235bb30ad375f279248aafc89f4a92899a900de",
      "contractAddress": null
    }
  ],
  "libraries": [],
  "pending": [],
  "returns": {},
  "timestamp": 1741849826,
  "chain": 1337,
  "commit": "4e15eab"
}