{
  "transactions": [
    {
      "hash": "0xe482a9873d0efd5946852836ea832faa4a5576a036b8a8ce3de1733253df2108",
      "transactionType": "CALL",
      "contractName": null,
      "contractAddress": "0xf235bb30ad375f279248aafc89f4a92899a900de",
      "function": "approveBuyer(address,bool,bool,bool,uint256,string,bool,bool)",
      "arguments": [
        "0x98555970bf30BF7ed08Cf29BB08D432830b9b8bd",
        "true",
        "true",
        "true",
        "10000000000000000000000",
        "Rua dos Bobos, 0",
        "true",
        "true"
      ],
      "transaction": {
        "from": "0xf17f52151ebef6c7334fad080c5704d77216b732",
        "to": "0xf235bb30ad375f279248aafc89f4a92899a900de",
        "gas": "0x28fcf",
        "value": "0x0",
        "input": "0x5cdeccf800000000000000000000000098555970bf30bf7ed08cf29bb08d432830b9b8bd00000000000000000000000000000000000000000000000000000000000000010000000000000000000000000000000000000000000000000000000000000001000000000000000000000000000000000000000000000000000000000000000100000000000000000000000000000000000000000000021e19e0c9bab2400000000000000000000000000000000000000000000000000000000000000000010000000000000000000000000000000000000000000000000000000000000000010000000000000000000000000000000000000000000000000000000000000001000000000000000000000000000000000000000000000000000000000000001052756120646f7320426f626f732c203000000000000000000000000000000000",
        "nonce": "0x58",
        "chainId": "0x539"
      },
      "additionalContracts": [],
      "isFixedGasLimit": false
    }
  ],
  "receipts": [
    {
      "status": "0x1",
      "cumulativeGasUsed": "0x1dacc",
      "logs": [
        {
          "address": "0xf235bb30ad375f279248aafc89f4a92899a900de",
          "topics": [
            "0x5d619b2d34bb4b42202a1b22720ed0ce4c21d01d1b6bd98234ad6d138df7c0c6",
            "0x00000000000000000000000098555970bf30bf7ed08cf29bb08d432830b9b8bd",
            "0x30cdaef97b0a978e13faead516df0ab2aa8365e6899e0231b8d04f25900e23f1",
            "0x0000000000000000000000000000000000000000000000000000000000000001"
          ],
          "data": "0x00000000000000000000000000000000000000000000000000000000000000010000000000000000000000000000000000000000000000000000000000000001000000000000000000000000000000000000000000000000000000000000000100000000000000000000000000000000000000000000021e19e0c9bab24000000000000000000000000000000000000000000000000000000000000000000001",
          "blockHash": "0x906fa2cd20d041bd795142001e0e03d3e59d1207d80f9c2386bf61c1489507b3",
          "blockNumber": "0x2d7d",
          "transactionHash": "0xe482a9873d0efd5946852836ea832faa4a5576a036b8a8ce3de1733253df2108",
          "transactionIndex": "0x0",
          "logIndex": "0x0",
          "removed": false
        }
      ],
      "logsBloom": "0x00000000000000000000040040000000000000000000000000400000000000000010000000000000100000004000000000000000000000000000000000040000000000000000400000000000000000000000000000040000000000000000000000000040000000000000000000000000000000000080000000000000000000000000000000008000000000000000000100000000000000000000000000000000000000000000000000000000000000000000000000000000000000000000000000000002000000000000000000000000000000000000000000000000000040000000000000000000000000000000000000000000000000000000000000000000",
      "type": "0x0",
      "transactionHash": "0xe482a9873d0efd5946852836ea832faa4a5576a036b8a8ce3de1733253df2108",
      "transactionIndex": "0x0",
      "blockHash": "0x906fa2cd20d041bd795142001e0e03d3e59d1207d80f9c2386bf61c1489507b3",
      "blockNumber": "0x2d7d",
      "gasUsed": "0x1dacc",
      "effectiveGasPrice": "0x3e8",
      "from": "0xf17f52151ebef6c7334fad080c5704d77216b732",
      "to": "0xf235bb30ad375f279248aafc89f4a92899a900de",
      "contractAddress": null
    }
  ],
  "libraries": [],
  "pending": [],
  "returns": {},
  "timestamp": 1741849533,
  "chain": 1337,
  "commit": "4e15eab"
}