{
  "transactions": [
    {
      "hash": "0xf1867eca2b321a61e32bab0244a8548dab91f6a800c1e898bc401ddf1103c559",
      "transactionType": "CALL",
      "contractName": null,
      "contractAddress": "0x2078faf714fb3727a66bc10f7a9690b5a16cd0bb",
      "function": "removeAgent(address)",
      "arguments": [
        "0x293D0b9eF2990BC8093E346eeC39e3fc552A3b09"
      ],
      "transaction": {
        "from": "0xf17f52151ebef6c7334fad080c5704d77216b732",
        "to": "0x2078faf714fb3727a66bc10f7a9690b5a16cd0bb",
        "gas": "0x958b",
        "value": "0x0",
        "input": "0x97a6278e000000000000000000000000293d0b9ef2990bc8093e346eec39e3fc552a3b09",
        "nonce": "0x55",
        "chainId": "0x539"
      },
      "additionalContracts": [],
      "isFixedGasLimit": false
    }
  ],
  "receipts": [
    {
      "status": "0x1",
      "cumulativeGasUsed": "0x6641",
      "logs": [
        {
          "address": "0x2078faf714fb3727a66bc10f7a9690b5a16cd0bb",
          "topics": [
            "0xed9c8ad8d5a0a66898ea49d2956929c93ae2e8bd50281b2ed897c5d1a6737e0b",
            "0x000000000000000000000000293d0b9ef2990bc8093e346eec39e3fc552a3b09"
          ],
          "data": "0x",
          "blockHash": "0xcef7aedfcc5064d0a17c7143e2eb8327429c8017a72c1e5b94cd6c4f5dd233b2",
          "blockNumber": "0x2cc5",
          "transactionHash": "0xf1867eca2b321a61e32bab0244a8548dab91f6a800c1e898bc401ddf1103c559",
          "transactionIndex": "0x0",
          "logIndex": "0x0",
          "removed": false
        }
      ],
      "logsBloom": "0x04000000000000000000000000000000000000000000000000000000000000000040000000000000000000000000000000000000000000000000000000000000000000000000000002000000000000000000000000000000000000000000000000000000000000000000400000000000000000000000000000000000000000000000000000000000000000000000000000000000000000000000000000000000000000000000000000000000000000000000000000000000000000000000000000000001000000000000000000000000000000000000000000000002000000000000000000000000000000000000000000040000002000000080000000000000",
      "type": "0x0",
      "transactionHash": "0xf1867eca2b321a61e32bab0244a8548dab91f6a800c1e898bc401ddf1103c559",
      "transactionIndex": "0x0",
      "blockHash": "0xcef7aedfcc5064d0a17c7143e2eb8327429c8017a72c1e5b94cd6c4f5dd233b2",
      "blockNumber": "0x2cc5",
      "gasUsed": "0x6641",
      "effectiveGasPrice": "0x3e8",
      "from": "0xf17f52151ebef6c7334fad080c5704d77216b732",
      "to": "0x2078faf714fb3727a66bc10f7a9690b5a16cd0bb",
      "contractAddress": null
    }
  ],
  "libraries": [],
  "pending": [],
  "returns": {},
  "timestamp": 1741849165,
  "chain": 1337,
  "commit": "4e15eab"
}