{
  "transactions": [
    {
      "hash": "0x2760634181d3a747266fa77f33635e58fd2b4ea716961a7b7d535759f9d2a1ee",
      "transactionType": "CALL",
      "contractName": null,
      "contractAddress": "0x2078faf714fb3727a66bc10f7a9690b5a16cd0bb",
      "function": "mint(address,uint256)",
      "arguments": [
        "0xf4A5e19692F30dB458B566923e3252fEB35da745",
        "1000000000000000000"
      ],
      "transaction": {
        "from": "0xf17f52151ebef6c7334fad080c5704d77216b732",
        "to": "0x2078faf714fb3727a66bc10f7a9690b5a16cd0bb",
        "gas": "0x2c65e",
        "value": "0x0",
        "input": "0x40c10f19000000000000000000000000f4a5e19692f30db458b566923e3252feb35da7450000000000000000000000000000000000000000000000000de0b6b3a7640000",
        "nonce": "0x5a",
        "chainId": "0x539"
      },
      "additionalContracts": [],
      "isFixedGasLimit": false
    }
  ],
  "receipts": [
    {
      "status": "0x1",
      "cumulativeGasUsed": "0x1e5b9",
      "logs": [
        {
          "address": "0x2078faf714fb3727a66bc10f7a9690b5a16cd0bb",
          "topics": [
            "0xddf252ad1be2c89b69c2b068fc378daa952ba7f163c4a11628f55a4df523b3ef",
            "0x0000000000000000000000000000000000000000000000000000000000000000",
            "0x000000000000000000000000f4a5e19692f30db458b566923e3252feb35da745"
          ],
          "data": "0x0000000000000000000000000000000000000000000000000de0b6b3a7640000",
          "blockHash": "0xf40d19405acd864ebf612702b7042b00d246c5ed4391addf0dda0f80e53f99b5",
          "blockNumber": "0x2e4f",
          "transactionHash": "0x2760634181d3a747266fa77f33635e58fd2b4ea716961a7b7d535759f9d2a1ee",
          "transactionIndex": "0x0",
          "logIndex": "0x0",
          "removed": false
        }
      ],
      "logsBloom": "0x00000000040000000000000000000000000000000000000000000000000000000040000000000000000000000000000000000000000000000000000000000000000000000000000000000008000000000000000000000000000000000000000000000000020000000000000000000800000000000000000000000010000000000000000000000000800000000000000000000000000000000000000000000000000000000000000000000000000000000000001000000000000000000000000000000003000000000000000000000000000000000000000000000000000020000000000000000000000000000000000000000000000000000080000000000000",
      "type": "0x0",
      "transactionHash": "0x2760634181d3a747266fa77f33635e58fd2b4ea716961a7b7d535759f9d2a1ee",
      "transactionIndex": "0x0",
      "blockHash": "0xf40d19405acd864ebf612702b7042b00d246c5ed4391addf0dda0f80e53f99b5",
      "blockNumber": "0x2e4f",
      "gasUsed": "0x1e5b9",
      "effectiveGasPrice": "0x3e8",
      "from": "0xf17f52151ebef6c7334fad080c5704d77216b732",
      "to": "0x2078faf714fb3727a66bc10f7a9690b5a16cd0bb",
      "contractAddress": null
    }
  ],
  "libraries": [],
  "pending": [],
  "returns": {},
  "timestamp": 1741849978,
  "chain": 1337,
  "commit": "4e15eab"
}